{
  "_format": "hh-sol-artifact-1",
  "contractName": "RevenueToken",
  "sourceName": "contracts/RevenueToken.sol",
  "abi": [
    {
      "inputs": [
        {
          "internalType": "string",
          "name": "name_",
          "type": "string"
        },
        {
          "internalType": "string",
          "name": "symbol_",
          "type": "string"
        },
        {
          "internalType": "address",
          "name": "initialAccount",
          "type": "address"
        }
      ],
      "stateMutability": "nonpayable",
      "type": "constructor"
    },
    {
      "anonymous": false,
      "inputs": [
        {
          "indexed": false,
          "internalType": "address",
          "name": "participant",
          "type": "address"
        },
        {
          "indexed": false,
          "internalType": "address",
          "name": "sender",
          "type": "address"
        },
        {
          "indexed": false,
          "internalType": "uint256",
          "name": "amount",
          "type": "uint256"
        }
      ],
      "name": "AddParticipant",
      "type": "event"
    },
    {
      "anonymous": false,
      "inputs": [
        {
          "indexed": true,
          "internalType": "address",
          "name": "owner",
          "type": "address"
        },
        {
          "indexed": true,
          "internalType": "address",
          "name": "spender",
          "type": "address"
        },
        {
          "indexed": false,
          "internalType": "uint256",
          "name": "value",
          "type": "uint256"
        }
      ],
      "name": "Approval",
      "type": "event"
    },
    {
      "anonymous": false,
      "inputs": [
        {
          "indexed": true,
          "internalType": "address",
          "name": "sender",
          "type": "address"
        },
        {
          "indexed": false,
          "internalType": "address",
          "name": "cloneAddress",
          "type": "address"
        }
      ],
      "name": "Clone",
      "type": "event"
    },
    {
      "anonymous": false,
      "inputs": [],
      "name": "DistributeEth",
      "type": "event"
    },
    {
      "anonymous": false,
      "inputs": [
        {
          "indexed": false,
          "internalType": "address",
          "name": "tokenAddress",
          "type": "address"
        }
      ],
      "name": "DistributeToken",
      "type": "event"
    },
    {
      "anonymous": false,
      "inputs": [
        {
          "indexed": false,
          "internalType": "address",
          "name": "forfeiter",
          "type": "address"
        }
      ],
      "name": "Forfeit",
      "type": "event"
    },
    {
      "anonymous": false,
      "inputs": [
        {
          "indexed": true,
          "internalType": "address",
          "name": "from",
          "type": "address"
        },
        {
          "indexed": true,
          "internalType": "address",
          "name": "to",
          "type": "address"
        },
        {
          "indexed": false,
          "internalType": "uint256",
          "name": "value",
          "type": "uint256"
        }
      ],
      "name": "Transfer",
      "type": "event"
    },
    {
      "inputs": [
        {
          "internalType": "address",
          "name": "newParticipant",
          "type": "address"
        },
        {
          "internalType": "uint256",
          "name": "amount",
          "type": "uint256"
        }
      ],
      "name": "addParticipant",
      "outputs": [
        {
          "internalType": "bool",
          "name": "",
          "type": "bool"
        }
      ],
      "stateMutability": "nonpayable",
      "type": "function"
    },
    {
      "inputs": [
        {
          "internalType": "address",
          "name": "owner",
          "type": "address"
        },
        {
          "internalType": "address",
          "name": "spender",
          "type": "address"
        }
      ],
      "name": "allowance",
      "outputs": [
        {
          "internalType": "uint256",
          "name": "",
          "type": "uint256"
        }
      ],
      "stateMutability": "view",
      "type": "function"
    },
    {
      "inputs": [
        {
          "internalType": "address",
          "name": "spender",
          "type": "address"
        },
        {
          "internalType": "uint256",
          "name": "amount",
          "type": "uint256"
        }
      ],
      "name": "approve",
      "outputs": [
        {
          "internalType": "bool",
          "name": "",
          "type": "bool"
        }
      ],
      "stateMutability": "nonpayable",
      "type": "function"
    },
    {
      "inputs": [
        {
          "internalType": "address",
          "name": "account",
          "type": "address"
        }
      ],
      "name": "balanceOf",
      "outputs": [
        {
          "internalType": "uint256",
          "name": "",
          "type": "uint256"
        }
      ],
      "stateMutability": "view",
      "type": "function"
    },
    {
      "inputs": [
        {
          "internalType": "string",
          "name": "name_",
          "type": "string"
        },
        {
          "internalType": "string",
          "name": "symbol_",
          "type": "string"
        },
        {
          "internalType": "address",
          "name": "initialAccount",
          "type": "address"
        }
      ],
      "name": "clone",
      "outputs": [
        {
          "internalType": "address",
          "name": "",
          "type": "address"
        }
      ],
      "stateMutability": "nonpayable",
      "type": "function"
    },
    {
      "inputs": [],
      "name": "decimals",
      "outputs": [
        {
          "internalType": "uint8",
          "name": "",
          "type": "uint8"
        }
      ],
      "stateMutability": "view",
      "type": "function"
    },
    {
      "inputs": [
        {
          "internalType": "address",
          "name": "spender",
          "type": "address"
        },
        {
          "internalType": "uint256",
          "name": "subtractedValue",
          "type": "uint256"
        }
      ],
      "name": "decreaseAllowance",
      "outputs": [
        {
          "internalType": "bool",
          "name": "",
          "type": "bool"
        }
      ],
      "stateMutability": "nonpayable",
      "type": "function"
    },
    {
      "inputs": [],
      "name": "distributeEth",
      "outputs": [],
      "stateMutability": "nonpayable",
      "type": "function"
    },
    {
      "inputs": [
        {
          "internalType": "address",
          "name": "_token",
          "type": "address"
        }
      ],
      "name": "distributeToken",
      "outputs": [],
      "stateMutability": "nonpayable",
      "type": "function"
    },
    {
      "inputs": [],
      "name": "forfeit",
      "outputs": [],
      "stateMutability": "nonpayable",
      "type": "function"
    },
    {
      "inputs": [
        {
          "internalType": "address",
          "name": "spender",
          "type": "address"
        },
        {
          "internalType": "uint256",
          "name": "addedValue",
          "type": "uint256"
        }
      ],
      "name": "increaseAllowance",
      "outputs": [
        {
          "internalType": "bool",
          "name": "",
          "type": "bool"
        }
      ],
      "stateMutability": "nonpayable",
      "type": "function"
    },
    {
      "inputs": [
        {
          "internalType": "address",
          "name": "participant_",
          "type": "address"
        }
      ],
      "name": "isParticipant",
      "outputs": [
        {
          "internalType": "bool",
          "name": "",
          "type": "bool"
        }
      ],
      "stateMutability": "view",
      "type": "function"
    },
    {
      "inputs": [],
      "name": "name",
      "outputs": [
        {
          "internalType": "string",
          "name": "",
          "type": "string"
        }
      ],
      "stateMutability": "view",
      "type": "function"
    },
    {
      "inputs": [],
      "name": "participants",
      "outputs": [
        {
          "internalType": "address[]",
          "name": "",
          "type": "address[]"
        }
      ],
      "stateMutability": "view",
      "type": "function"
    },
    {
      "inputs": [
        {
          "internalType": "string",
          "name": "name_",
          "type": "string"
        },
        {
          "internalType": "string",
          "name": "symbol_",
          "type": "string"
        },
        {
          "internalType": "address",
          "name": "initialAccount",
          "type": "address"
        }
      ],
      "name": "setCloneParameters",
      "outputs": [],
      "stateMutability": "nonpayable",
      "type": "function"
    },
    {
      "inputs": [],
      "name": "symbol",
      "outputs": [
        {
          "internalType": "string",
          "name": "",
          "type": "string"
        }
      ],
      "stateMutability": "view",
      "type": "function"
    },
    {
      "inputs": [],
      "name": "totalSupply",
      "outputs": [
        {
          "internalType": "uint256",
          "name": "",
          "type": "uint256"
        }
      ],
      "stateMutability": "pure",
      "type": "function"
    },
    {
      "inputs": [
        {
          "internalType": "address",
          "name": "recipient",
          "type": "address"
        },
        {
          "internalType": "uint256",
          "name": "amount",
          "type": "uint256"
        }
      ],
      "name": "transfer",
      "outputs": [
        {
          "internalType": "bool",
          "name": "",
          "type": "bool"
        }
      ],
      "stateMutability": "nonpayable",
      "type": "function"
    },
    {
      "inputs": [
        {
          "internalType": "address",
          "name": "sender",
          "type": "address"
        },
        {
          "internalType": "address",
          "name": "recipient",
          "type": "address"
        },
        {
          "internalType": "uint256",
          "name": "amount",
          "type": "uint256"
        }
      ],
      "name": "transferFrom",
      "outputs": [
        {
          "internalType": "bool",
          "name": "",
          "type": "bool"
        }
      ],
      "stateMutability": "nonpayable",
      "type": "function"
    },
    {
      "stateMutability": "payable",
      "type": "receive"
    }
  ],
  "bytecode": "0x60806040523480156200001157600080fd5b5060405162002a5238038062002a5283398101604081905262000034916200035d565b8251839083906200004d90600390602085019062000204565b5080516200006390600490602084019062000204565b505083516200007b9150600890602086019062000204565b5081516200009190600990602085019062000204565b506001600160a01b0381166000818152600a60205260408120805460ff19166001908117909155600b805491820181559091527f0175b7a638427703f0dbe7bb9bbf987a2551717b34e79f33b5b1008d1fa01db90180546001600160a01b031916909117905562000113816200010d68056bc75e2d6310000090565b6200011c565b5050506200045e565b6001600160a01b038216620001775760405162461bcd60e51b815260206004820152601f60248201527f45524332303a206d696e7420746f20746865207a65726f206164647265737300604482015260640160405180910390fd5b80600260008282546200018b9190620003e6565b90915550506001600160a01b03821660009081526020819052604081208054839290620001ba908490620003e6565b90915550506040518181526001600160a01b038316906000907fddf252ad1be2c89b69c2b068fc378daa952ba7f163c4a11628f55a4df523b3ef9060200160405180910390a35050565b82805462000212906200040b565b90600052602060002090601f01602090048101928262000236576000855562000281565b82601f106200025157805160ff191683800117855562000281565b8280016001018555821562000281579182015b828111156200028157825182559160200191906001019062000264565b506200028f92915062000293565b5090565b5b808211156200028f576000815560010162000294565b600082601f830112620002bb578081fd5b81516001600160401b0380821115620002d857620002d862000448565b604051601f8301601f19908116603f0116810190828211818310171562000303576200030362000448565b816040528381526020925086838588010111156200031f578485fd5b8491505b8382101562000342578582018301518183018401529082019062000323565b838211156200035357848385830101525b9695505050505050565b60008060006060848603121562000372578283fd5b83516001600160401b038082111562000389578485fd5b6200039787838801620002aa565b94506020860151915080821115620003ad578384fd5b50620003bc86828701620002aa565b604086015190935090506001600160a01b0381168114620003db578182fd5b809150509250925092565b600082198211156200040657634e487b7160e01b81526011600452602481fd5b500190565b600181811c908216806200042057607f821691505b602082108114156200044257634e487b7160e01b600052602260045260246000fd5b50919050565b634e487b7160e01b600052604160045260246000fd5b6125e4806200046e6000396000f3fe6080604052600436106101485760003560e01c806370a08231116100c0578063a9059cbb11610074578063dbc938d811610059578063dbc938d8146103d4578063dd62ed3e146103e9578063f3d86e4a1461043c57600080fd5b8063a9059cbb14610394578063db56909a146103b457600080fd5b8063929066f5116100a5578063929066f51461031957806395d89b411461035f578063a457c2d71461037457600080fd5b806370a08231146102b457806386d74037146102f757600080fd5b806323b872dd1161011757806339509351116100fc578063395093511461022d5780636bbfa5581461024d5780636c4470fb1461029257600080fd5b806323b872dd146101f1578063313ce5671461021157600080fd5b806301e7fefe1461015457806306fdde0314610189578063095ea7b3146101ab57806318160ddd146101cb57600080fd5b3661014f57005b600080fd5b34801561016057600080fd5b5061017461016f366004612201565b610451565b60405190151581526020015b60405180910390f35b34801561019557600080fd5b5061019e610618565b6040516101809190612393565b3480156101b757600080fd5b506101746101c6366004612201565b6106aa565b3480156101d757600080fd5b5068056bc75e2d631000005b604051908152602001610180565b3480156101fd57600080fd5b5061017461020c3660046121c6565b6106c0565b34801561021d57600080fd5b5060405160128152602001610180565b34801561023957600080fd5b50610174610248366004612201565b6107f7565b34801561025957600080fd5b5061026d61026836600461224a565b610840565b60405173ffffffffffffffffffffffffffffffffffffffff9091168152602001610180565b34801561029e57600080fd5b506102a7610937565b6040516101809190612339565b3480156102c057600080fd5b506101e36102cf36600461217a565b73ffffffffffffffffffffffffffffffffffffffff1660009081526020819052604090205490565b34801561030357600080fd5b5061031761031236600461217a565b6109a5565b005b34801561032557600080fd5b5061017461033436600461217a565b73ffffffffffffffffffffffffffffffffffffffff166000908152600a602052604090205460ff1690565b34801561036b57600080fd5b5061019e610c3f565b34801561038057600080fd5b5061017461038f366004612201565b610c4e565b3480156103a057600080fd5b506101746103af366004612201565b610d26565b3480156103c057600080fd5b506103176103cf36600461224a565b610dc9565b3480156103e057600080fd5b50610317610f79565b3480156103f557600080fd5b506101e3610404366004612194565b73ffffffffffffffffffffffffffffffffffffffff918216600090815260016020908152604080832093909416825291909152205490565b34801561044857600080fd5b5061031761117b565b336000908152600a602052604081205460ff166104cf576040517f08c379a000000000000000000000000000000000000000000000000000000000815260206004820152601b60248201527f43616c6c6572206973206e6f742061207061727469636970616e74000000000060448201526064015b60405180910390fd5b73ffffffffffffffffffffffffffffffffffffffff83166000908152600a602052604090205460ff1661060e5773ffffffffffffffffffffffffffffffffffffffff83166000818152600a6020526040812080547fffffffffffffffffffffffffffffffffffffffffffffffffffffffffffffff00166001908117909155600b8054918201815582527f0175b7a638427703f0dbe7bb9bbf987a2551717b34e79f33b5b1008d1fa01db90180547fffffffffffffffffffffffff0000000000000000000000000000000000000000169092179091556105ae8484610d26565b6040805173ffffffffffffffffffffffffffffffffffffffff8716815233602082015280820186905290519192507fd8586cf744aa0a4de3951fb91ca41aa1e52e7a41f5d804f068fc214f5a21508b919081900360600190a19050610612565b5060005b92915050565b606060088054610627906124c3565b80601f0160208091040260200160405190810160405280929190818152602001828054610653906124c3565b80156106a05780601f10610675576101008083540402835291602001916106a0565b820191906000526020600020905b81548152906001019060200180831161068357829003601f168201915b5050505050905090565b60006106b7338484611583565b50600192915050565b73ffffffffffffffffffffffffffffffffffffffff83166000908152600a6020526040812054849060ff16610751576040517f08c379a000000000000000000000000000000000000000000000000000000000815260206004820152601d60248201527f417267756d656e74206973206e6f742061207061727469636970616e7400000060448201526064016104c6565b73ffffffffffffffffffffffffffffffffffffffff84166000908152600a6020526040902054849060ff166107e2576040517f08c379a000000000000000000000000000000000000000000000000000000000815260206004820152601d60248201527f417267756d656e74206973206e6f742061207061727469636970616e7400000060448201526064016104c6565b6107ed868686611736565b9695505050505050565b33600081815260016020908152604080832073ffffffffffffffffffffffffffffffffffffffff8716845290915281205490916106b791859061083b9086906123f2565b611583565b60008061084c3061181c565b6040517fdb56909a00000000000000000000000000000000000000000000000000000000815290915073ffffffffffffffffffffffffffffffffffffffff82169063db56909a906108a5908890889088906004016123a6565b600060405180830381600087803b1580156108bf57600080fd5b505af11580156108d3573d6000803e3d6000fd5b505050506108de3390565b60405173ffffffffffffffffffffffffffffffffffffffff838116825291909116907fb557324045551eafb0789d69d5679a7017a31840124b2220df4b81dea45ec0839060200160405180910390a290505b9392505050565b6060600b8054806020026020016040519081016040528092919081815260200182805480156106a057602002820191906000526020600020905b815473ffffffffffffffffffffffffffffffffffffffff168152600190910190602001808311610971575050505050905090565b336000908152600a602052604090205460ff16610a1e576040517f08c379a000000000000000000000000000000000000000000000000000000000815260206004820152601b60248201527f43616c6c6572206973206e6f742061207061727469636970616e74000000000060448201526064016104c6565b80600068056bc75e2d631000006040517f70a0823100000000000000000000000000000000000000000000000000000000815230600482015290915060009073ffffffffffffffffffffffffffffffffffffffff8416906370a082319060240160206040518083038186803b158015610a9657600080fd5b505afa158015610aaa573d6000803e3d6000fd5b505050506040513d601f19601f82011682018060405250810190610ace91906122bb565b90508060005b600b54811015610bcd576000600b8281548110610b1a577f4e487b7100000000000000000000000000000000000000000000000000000000600052603260045260246000fd5b60009182526020909120015473ffffffffffffffffffffffffffffffffffffffff16905033811415610b4c5750610bbb565b73ffffffffffffffffffffffffffffffffffffffff81166000908152602081905260408120549086610b7e8388612443565b610b88919061240a565b9050610b948186612480565b9450610bb773ffffffffffffffffffffffffffffffffffffffff891684836118fe565b5050505b80610bc581612517565b915050610ad4565b50610bef73ffffffffffffffffffffffffffffffffffffffff851633836118fe565b60405173ffffffffffffffffffffffffffffffffffffffff861681527f6a49bcf75342d76c89aeb53ec8232bdf42c975579c0776dfcdcc562eb5daa8729060200160405180910390a15050505050565b606060098054610627906124c3565b33600090815260016020908152604080832073ffffffffffffffffffffffffffffffffffffffff8616845290915281205482811015610d0f576040517f08c379a000000000000000000000000000000000000000000000000000000000815260206004820152602560248201527f45524332303a2064656372656173656420616c6c6f77616e63652062656c6f7760448201527f207a65726f00000000000000000000000000000000000000000000000000000060648201526084016104c6565b610d1c3385858403611583565b5060019392505050565b73ffffffffffffffffffffffffffffffffffffffff82166000908152600a6020526040812054839060ff16610db7576040517f08c379a000000000000000000000000000000000000000000000000000000000815260206004820152601d60248201527f417267756d656e74206973206e6f742061207061727469636970616e7400000060448201526064016104c6565b610dc1848461198b565b949350505050565b610dd1611998565b73ffffffffffffffffffffffffffffffffffffffff163373ffffffffffffffffffffffffffffffffffffffff1614610e8b576040517f08c379a000000000000000000000000000000000000000000000000000000000815260206004820152602860248201527f4d6179206f6e6c792062652063616c6c65642066726f6d20636c6f6e696e672060448201527f636f6e747261637400000000000000000000000000000000000000000000000060648201526084016104c6565b8251610e9e906008906020860190612018565b508151610eb2906009906020850190612018565b5073ffffffffffffffffffffffffffffffffffffffff81166000818152600a6020526040812080547fffffffffffffffffffffffffffffffffffffffffffffffffffffffffffffff00166001908117909155600b805491820181559091527f0175b7a638427703f0dbe7bb9bbf987a2551717b34e79f33b5b1008d1fa01db90180547fffffffffffffffffffffffff0000000000000000000000000000000000000000169091179055610f7481610f6f68056bc75e2d6310000090565b6119eb565b505050565b336000908152600a602052604090205460ff16610ff2576040517f08c379a000000000000000000000000000000000000000000000000000000000815260206004820152601b60248201527f43616c6c6572206973206e6f742061207061727469636970616e74000000000060448201526064016104c6565b68056bc75e2d63100000478060005b600b5481101561111e576000600b8281548110611047577f4e487b7100000000000000000000000000000000000000000000000000000000600052603260045260246000fd5b60009182526020909120015473ffffffffffffffffffffffffffffffffffffffff16905033811415611079575061110c565b73ffffffffffffffffffffffffffffffffffffffff811660009081526020819052604081205490866110ab8388612443565b6110b5919061240a565b90506110c18186612480565b60405190955073ffffffffffffffffffffffffffffffffffffffff84169082156108fc029083906000818181858888f19350505050158015611107573d6000803e3d6000fd5b505050505b8061111681612517565b915050611001565b50604051339082156108fc029083906000818181858888f1935050505015801561114c573d6000803e3d6000fd5b506040517f975dc81fc1f814abf091a0d0126f3d75cde1a0b0aa2dee81138793762eea42fc90600090a1505050565b336000908152600a602052604090205460ff166111f4576040517f08c379a000000000000000000000000000000000000000000000000000000000815260206004820152601b60248201527f43616c6c6572206973206e6f742061207061727469636970616e74000000000060448201526064016104c6565b600b54600110611286576040517f08c379a000000000000000000000000000000000000000000000000000000000815260206004820152602660248201527f43616e6e6f7420666f726665697420617320746865206f6e6c7920706172746960448201527f636970616e74000000000000000000000000000000000000000000000000000060648201526084016104c6565b68056bc75e2d63100000600061129b336102cf565b905060006112a98284612480565b90506000805b600b54811015611394576000600b82815481106112f5577f4e487b7100000000000000000000000000000000000000000000000000000000600052603260045260246000fd5b60009182526020909120015473ffffffffffffffffffffffffffffffffffffffff1690503381141561132a5781925050611382565b73ffffffffffffffffffffffffffffffffffffffff811660009081526020819052604081205490818661135d828b612443565b611367919061240a565b6113719190612480565b905061137d8382610d26565b505050505b8061138c81612517565b9150506112af565b50600b80546113a590600190612480565b815481106113dc577f4e487b7100000000000000000000000000000000000000000000000000000000600052603260045260246000fd5b600091825260209091200154600b805473ffffffffffffffffffffffffffffffffffffffff909216918390811061143c577f4e487b7100000000000000000000000000000000000000000000000000000000600052603260045260246000fd5b9060005260206000200160006101000a81548173ffffffffffffffffffffffffffffffffffffffff021916908373ffffffffffffffffffffffffffffffffffffffff160217905550600b8054806114bc577f4e487b7100000000000000000000000000000000000000000000000000000000600052603160045260246000fd5b600082815260208082207fffffffffffffffffffffffffffffffffffffffffffffffffffffffffffffffff908401810180547fffffffffffffffffffffffff000000000000000000000000000000000000000016905590920190925533808352600a825260409283902080547fffffffffffffffffffffffffffffffffffffffffffffffffffffffffffffff00169055825190815291517f652c8b1e46a6260cc853fd048408e055cc4e68d195daac13775c3322fca159c59281900390910190a150505050565b73ffffffffffffffffffffffffffffffffffffffff8316611625576040517f08c379a0000000000000000000000000000000000000000000000000000000008152602060048201526024808201527f45524332303a20617070726f76652066726f6d20746865207a65726f2061646460448201527f726573730000000000000000000000000000000000000000000000000000000060648201526084016104c6565b73ffffffffffffffffffffffffffffffffffffffff82166116c8576040517f08c379a000000000000000000000000000000000000000000000000000000000815260206004820152602260248201527f45524332303a20617070726f766520746f20746865207a65726f20616464726560448201527f737300000000000000000000000000000000000000000000000000000000000060648201526084016104c6565b73ffffffffffffffffffffffffffffffffffffffff83811660008181526001602090815260408083209487168084529482529182902085905590518481527f8c5be1e5ebec7d5bd14f71427d1e84f3dd0314c0f7b2291e5b200ac8c7c3b925910160405180910390a3505050565b6000611743848484611b0b565b73ffffffffffffffffffffffffffffffffffffffff8416600090815260016020908152604080832033845290915290205482811015611804576040517f08c379a000000000000000000000000000000000000000000000000000000000815260206004820152602860248201527f45524332303a207472616e7366657220616d6f756e742065786365656473206160448201527f6c6c6f77616e636500000000000000000000000000000000000000000000000060648201526084016104c6565b6118118533858403611583565b506001949350505050565b60006040517f3d602d80600a3d3981f3363d3d373d3d3d363d7300000000000000000000000081528260601b60148201527f5af43d82803e903d91602b57fd5bf3000000000000000000000000000000000060288201526037816000f091505073ffffffffffffffffffffffffffffffffffffffff81166118f9576040517f08c379a000000000000000000000000000000000000000000000000000000000815260206004820152601660248201527f455243313136373a20637265617465206661696c65640000000000000000000060448201526064016104c6565b919050565b6040805173ffffffffffffffffffffffffffffffffffffffff8416602482015260448082018490528251808303909101815260649091019091526020810180517bffffffffffffffffffffffffffffffffffffffffffffffffffffffff167fa9059cbb00000000000000000000000000000000000000000000000000000000179052610f74908490611dc0565b60006106b7338484611b0b565b6040805160148082528183019092526000918291906020820181803683370190505090506014600a82303c7ffffffffffffffffffffffffffffffffffffffffffffffffffffffffffffffff40151919050565b73ffffffffffffffffffffffffffffffffffffffff8216611a68576040517f08c379a000000000000000000000000000000000000000000000000000000000815260206004820152601f60248201527f45524332303a206d696e7420746f20746865207a65726f20616464726573730060448201526064016104c6565b8060026000828254611a7a91906123f2565b909155505073ffffffffffffffffffffffffffffffffffffffff821660009081526020819052604081208054839290611ab49084906123f2565b909155505060405181815273ffffffffffffffffffffffffffffffffffffffff8316906000907fddf252ad1be2c89b69c2b068fc378daa952ba7f163c4a11628f55a4df523b3ef9060200160405180910390a35050565b73ffffffffffffffffffffffffffffffffffffffff8316611bae576040517f08c379a000000000000000000000000000000000000000000000000000000000815260206004820152602560248201527f45524332303a207472616e736665722066726f6d20746865207a65726f20616460448201527f647265737300000000000000000000000000000000000000000000000000000060648201526084016104c6565b73ffffffffffffffffffffffffffffffffffffffff8216611c51576040517f08c379a000000000000000000000000000000000000000000000000000000000815260206004820152602360248201527f45524332303a207472616e7366657220746f20746865207a65726f206164647260448201527f657373000000000000000000000000000000000000000000000000000000000060648201526084016104c6565b73ffffffffffffffffffffffffffffffffffffffff831660009081526020819052604090205481811015611d07576040517f08c379a000000000000000000000000000000000000000000000000000000000815260206004820152602660248201527f45524332303a207472616e7366657220616d6f756e742065786365656473206260448201527f616c616e6365000000000000000000000000000000000000000000000000000060648201526084016104c6565b73ffffffffffffffffffffffffffffffffffffffff808516600090815260208190526040808220858503905591851681529081208054849290611d4b9084906123f2565b925050819055508273ffffffffffffffffffffffffffffffffffffffff168473ffffffffffffffffffffffffffffffffffffffff167fddf252ad1be2c89b69c2b068fc378daa952ba7f163c4a11628f55a4df523b3ef84604051611db191815260200190565b60405180910390a35b50505050565b6000611e22826040518060400160405280602081526020017f5361666545524332303a206c6f772d6c6576656c2063616c6c206661696c65648152508573ffffffffffffffffffffffffffffffffffffffff16611ecc9092919063ffffffff16565b805190915015610f745780806020019051810190611e40919061222a565b610f74576040517f08c379a000000000000000000000000000000000000000000000000000000000815260206004820152602a60248201527f5361666545524332303a204552433230206f7065726174696f6e20646964206e60448201527f6f7420737563636565640000000000000000000000000000000000000000000060648201526084016104c6565b6060610dc1848460008585843b611f3f576040517f08c379a000000000000000000000000000000000000000000000000000000000815260206004820152601d60248201527f416464726573733a2063616c6c20746f206e6f6e2d636f6e747261637400000060448201526064016104c6565b6000808673ffffffffffffffffffffffffffffffffffffffff168587604051611f68919061231d565b60006040518083038185875af1925050503d8060008114611fa5576040519150601f19603f3d011682016040523d82523d6000602084013e611faa565b606091505b5091509150611fba828286611fc5565b979650505050505050565b60608315611fd4575081610930565b825115611fe45782518084602001fd5b816040517f08c379a00000000000000000000000000000000000000000000000000000000081526004016104c69190612393565b828054612024906124c3565b90600052602060002090601f016020900481019282612046576000855561208c565b82601f1061205f57805160ff191683800117855561208c565b8280016001018555821561208c579182015b8281111561208c578251825591602001919060010190612071565b5061209892915061209c565b5090565b5b80821115612098576000815560010161209d565b803573ffffffffffffffffffffffffffffffffffffffff811681146118f957600080fd5b600082601f8301126120e5578081fd5b813567ffffffffffffffff808211156121005761210061257f565b604051601f83017fffffffffffffffffffffffffffffffffffffffffffffffffffffffffffffffe0908116603f011681019082821181831017156121465761214661257f565b8160405283815286602085880101111561215e578485fd5b8360208701602083013792830160200193909352509392505050565b60006020828403121561218b578081fd5b610930826120b1565b600080604083850312156121a6578081fd5b6121af836120b1565b91506121bd602084016120b1565b90509250929050565b6000806000606084860312156121da578081fd5b6121e3846120b1565b92506121f1602085016120b1565b9150604084013590509250925092565b60008060408385031215612213578182fd5b61221c836120b1565b946020939093013593505050565b60006020828403121561223b578081fd5b81518015158114610930578182fd5b60008060006060848603121561225e578283fd5b833567ffffffffffffffff80821115612275578485fd5b612281878388016120d5565b94506020860135915080821115612296578384fd5b506122a3868287016120d5565b9250506122b2604085016120b1565b90509250925092565b6000602082840312156122cc578081fd5b5051919050565b600081518084526122eb816020860160208601612497565b601f017fffffffffffffffffffffffffffffffffffffffffffffffffffffffffffffffe0169290920160200192915050565b6000825161232f818460208701612497565b9190910192915050565b6020808252825182820181905260009190848201906040850190845b8181101561238757835173ffffffffffffffffffffffffffffffffffffffff1683529284019291840191600101612355565b50909695505050505050565b60208152600061093060208301846122d3565b6060815260006123b960608301866122d3565b82810360208401526123cb81866122d3565b91505073ffffffffffffffffffffffffffffffffffffffff83166040830152949350505050565b6000821982111561240557612405612550565b500190565b60008261243e577f4e487b710000000000000000000000000000000000000000000000000000000081526012600452602481fd5b500490565b6000817fffffffffffffffffffffffffffffffffffffffffffffffffffffffffffffffff048311821515161561247b5761247b612550565b500290565b60008282101561249257612492612550565b500390565b60005b838110156124b257818101518382015260200161249a565b83811115611dba5750506000910152565b600181811c908216806124d757607f821691505b60208210811415612511577f4e487b7100000000000000000000000000000000000000000000000000000000600052602260045260246000fd5b50919050565b60007fffffffffffffffffffffffffffffffffffffffffffffffffffffffffffffffff82141561254957612549612550565b5060010190565b7f4e487b7100000000000000000000000000000000000000000000000000000000600052601160045260246000fd5b7f4e487b7100000000000000000000000000000000000000000000000000000000600052604160045260246000fdfea2646970667358221220894cb28516d72d3af0004f1484a90cb3906949411a014798e3eb8be2430f48de64736f6c63430008040033",
  "linkReferences": {},
  "deployedLinkReferences": {}
}